{
  "contractName": "StudentData",
  "abi": [
    {
      "anonymous": false,
      "inputs": [
        {
          "indexed": false,
          "internalType": "uint256",
          "name": "id",
          "type": "uint256"
        },
        {
          "indexed": false,
          "internalType": "string",
          "name": "name",
          "type": "string"
        },
        {
          "indexed": false,
          "internalType": "string",
          "name": "department",
          "type": "string"
        },
        {
          "indexed": false,
          "internalType": "string",
          "name": "mobileNumber",
          "type": "string"
        }
      ],
      "name": "StudentAdded",
      "type": "event"
    },
    {
      "stateMutability": "nonpayable",
      "type": "fallback"
    },
    {
      "inputs": [
        {
          "internalType": "uint256",
          "name": "",
          "type": "uint256"
        }
      ],
      "name": "students",
      "outputs": [
        {
          "internalType": "uint256",
          "name": "id",
          "type": "uint256"
        },
        {
          "internalType": "string",
          "name": "name",
          "type": "string"
        },
        {
          "internalType": "string",
          "name": "department",
          "type": "string"
        },
        {
          "internalType": "string",
          "name": "mobileNumber",
          "type": "string"
        }
      ],
      "stateMutability": "view",
      "type": "function",
      "constant": true
    },
    {
      "inputs": [
        {
          "internalType": "uint256",
          "name": "_id",
          "type": "uint256"
        },
        {
          "internalType": "string",
          "name": "_name",
          "type": "string"
        },
        {
          "internalType": "string",
          "name": "_department",
          "type": "string"
        },
        {
          "internalType": "string",
          "name": "_mobileNumber",
          "type": "string"
        }
      ],
      "name": "addStudent",
      "outputs": [],
      "stateMutability": "nonpayable",
      "type": "function"
    },
    {
      "inputs": [
        {
          "internalType": "uint256",
          "name": "_id",
          "type": "uint256"
        }
      ],
      "name": "getStudentById",
      "outputs": [
        {
          "internalType": "string",
          "name": "name",
          "type": "string"
        },
        {
          "internalType": "string",
          "name": "department",
          "type": "string"
        },
        {
          "internalType": "string",
          "name": "mobileNumber",
          "type": "string"
        }
      ],
      "stateMutability": "view",
      "type": "function",
      "constant": true
    },
    {
      "inputs": [],
      "name": "getAllStudents",
      "outputs": [
        {
          "components": [
            {
              "internalType": "uint256",
              "name": "id",
              "type": "uint256"
            },
            {
              "internalType": "string",
              "name": "name",
              "type": "string"
            },
            {
              "internalType": "string",
              "name": "department",
              "type": "string"
            },
            {
              "internalType": "string",
              "name": "mobileNumber",
              "type": "string"
            }
          ],
          "internalType": "struct StudentData.Student[]",
          "name": "",
          "type": "tuple[]"
        }
      ],
      "stateMutability": "view",
      "type": "function",
      "constant": true
    }
  ],
  "bytecode": "0x608060405234801561001057600080fd5b50610cf5806100206000396000f3fe608060405234801561001057600080fd5b506004361061004c5760003560e01c806306ead22e1461006d578063c8fb079314610099578063e498b84e146100bb578063e9e30927146100d0575b60405162461bcd60e51b815260040161006490610b93565b60405180910390fd5b61008061007b366004610973565b6100e5565b6040516100909493929190610c01565b60405180910390f35b6100ac6100a7366004610973565b6102b9565b60405161009093929190610b0d565b6100ce6100c936600461098b565b6104e7565b005b6100d861063a565b6040516100909190610a64565b600081815481106100f557600080fd5b6000918252602090912060049091020180546001820180549193509061011a90610c6e565b80601f016020809104026020016040519081016040528092919081815260200182805461014690610c6e565b80156101935780601f1061016857610100808354040283529160200191610193565b820191906000526020600020905b81548152906001019060200180831161017657829003601f168201915b5050505050908060020180546101a890610c6e565b80601f01602080910402602001604051908101604052809291908181526020018280546101d490610c6e565b80156102215780601f106101f657610100808354040283529160200191610221565b820191906000526020600020905b81548152906001019060200180831161020457829003601f168201915b50505050509080600301805461023690610c6e565b80601f016020809104026020016040519081016040528092919081815260200182805461026290610c6e565b80156102af5780601f10610284576101008083540402835291602001916102af565b820191906000526020600020905b81548152906001019060200180831161029257829003601f168201915b5050505050905084565b60008181526001602052604090205460609081908190806102ec5760405162461bcd60e51b815260040161006490610bca565b6000806102fa600184610c4b565b8154811061031857634e487b7160e01b600052603260045260246000fd5b9060005260206000209060040201905080600101816002018260030182805461034090610c6e565b80601f016020809104026020016040519081016040528092919081815260200182805461036c90610c6e565b80156103b95780601f1061038e576101008083540402835291602001916103b9565b820191906000526020600020905b81548152906001019060200180831161039c57829003601f168201915b505050505092508180546103cc90610c6e565b80601f01602080910402602001604051908101604052809291908181526020018280546103f890610c6e565b80156104455780601f1061041a57610100808354040283529160200191610445565b820191906000526020600020905b81548152906001019060200180831161042857829003601f168201915b5050505050915080805461045890610c6e565b80601f016020809104026020016040519081016040528092919081815260200182805461048490610c6e565b80156104d15780601f106104a6576101008083540402835291602001916104d1565b820191906000526020600020905b8154815290600101906020018083116104b457829003601f168201915b5050505050905094509450945050509193909250565b600084815260016020526040902054156105135760405162461bcd60e51b815260040161006490610b50565b6040805160808101825285815260208082018681529282018590526060820184905260008054600181018255908052825160049091027f290decd9548b62a8d60345a988386fc84ba6bc95484008f6362f93160ef3e563810191825593518051939491936105aa937f290decd9548b62a8d60345a988386fc84ba6bc95484008f6362f93160ef3e564909301929190910190610859565b50604082015180516105c6916002840191602090910190610859565b50606082015180516105e2916003840191602090910190610859565b505060008054868252600160205260409182902055517f2d8a76f836e03f0b37d3ed270ed142d2db9fc41647972b592d9f9b9e28434681915061062c908690869086908690610c01565b60405180910390a150505050565b60606000805480602002602001604051908101604052809291908181526020016000905b8282101561085057838290600052602060002090600402016040518060800160405290816000820154815260200160018201805461069b90610c6e565b80601f01602080910402602001604051908101604052809291908181526020018280546106c790610c6e565b80156107145780601f106106e957610100808354040283529160200191610714565b820191906000526020600020905b8154815290600101906020018083116106f757829003601f168201915b5050505050815260200160028201805461072d90610c6e565b80601f016020809104026020016040519081016040528092919081815260200182805461075990610c6e565b80156107a65780601f1061077b576101008083540402835291602001916107a6565b820191906000526020600020905b81548152906001019060200180831161078957829003601f168201915b505050505081526020016003820180546107bf90610c6e565b80601f01602080910402602001604051908101604052809291908181526020018280546107eb90610c6e565b80156108385780601f1061080d57610100808354040283529160200191610838565b820191906000526020600020905b81548152906001019060200180831161081b57829003601f168201915b5050505050815250508152602001906001019061065e565b50505050905090565b82805461086590610c6e565b90600052602060002090601f01602090048101928261088757600085556108cd565b82601f106108a057805160ff19168380011785556108cd565b828001600101855582156108cd579182015b828111156108cd5782518255916020019190600101906108b2565b506108d99291506108dd565b5090565b5b808211156108d957600081556001016108de565b600082601f830112610902578081fd5b813567ffffffffffffffff8082111561091d5761091d610ca9565b604051601f8301601f19168101602001828111828210171561094157610941610ca9565b604052828152848301602001861015610958578384fd5b82602086016020830137918201602001929092529392505050565b600060208284031215610984578081fd5b5035919050565b600080600080608085870312156109a0578283fd5b84359350602085013567ffffffffffffffff808211156109be578485fd5b6109ca888389016108f2565b945060408701359150808211156109df578384fd5b6109eb888389016108f2565b93506060870135915080821115610a00578283fd5b50610a0d878288016108f2565b91505092959194509250565b60008151808452815b81811015610a3e57602081850181015186830182015201610a22565b81811115610a4f5782602083870101525b50601f01601f19169290920160200192915050565b60208082528251828201819052600091906040908185019080840286018301878501865b83811015610aff57603f19898403018552815160808151855288820151818a870152610ab682870182610a19565b9150508782015185820389870152610ace8282610a19565b91505060608083015192508582038187015250610aeb8183610a19565b968901969450505090860190600101610a88565b509098975050505050505050565b600060608252610b206060830186610a19565b8281036020840152610b328186610a19565b90508281036040840152610b468185610a19565b9695505050505050565b60208082526023908201527f53747564656e742077697468207468697320494420616c72656164792065786960408201526273747360e81b606082015260800190565b6020808252601e908201527f46616c6c6261636b2066756e6374696f6e3a204e6f7420616c6c6f7765640000604082015260600190565b6020808252601e908201527f53747564656e7420776974682074686973204944206e6f7420666f756e640000604082015260600190565b600085825260806020830152610c1a6080830186610a19565b8281036040840152610c2c8186610a19565b90508281036060840152610c408185610a19565b979650505050505050565b600082821015610c6957634e487b7160e01b81526011600452602481fd5b500390565b600281046001821680610c8257607f821691505b60208210811415610ca357634e487b7160e01b600052602260045260246000fd5b50919050565b634e487b7160e01b600052604160045260246000fdfea2646970667358221220b8f0a3a9f74b6e00982ac2c4ed28823546f640717104595454c580f3141ed74b64736f6c63430008000033",
  "immutableReferences": {},
  "source": "// SPDX-License-Identifier: MIT\npragma solidity ^0.8.0;\n\ncontract StudentData {\n    struct Student {\n        uint256 id;\n        string name;\n        string department;\n        string mobileNumber;\n    }\n\n    Student[] public students;\n    mapping(uint256 => uint256) studentIdToIndex;  // Mapping student ID to their index in the array\n\n    event StudentAdded(uint256 id, string name, string department, string mobileNumber);\n\n    function addStudent(uint256 _id, string memory _name, string memory _department, string memory _mobileNumber) public {\n        require(studentIdToIndex[_id] == 0, \"Student with this ID already exists\");\n        \n        students.push(Student(_id, _name, _department, _mobileNumber));\n        studentIdToIndex[_id] = students.length;\n        \n        emit StudentAdded(_id, _name, _department, _mobileNumber);\n    }\n\n    function getStudentById(uint256 _id) public view returns (string memory name, string memory department, string memory mobileNumber) {\n        uint256 index = studentIdToIndex[_id];\n        require(index > 0, \"Student with this ID not found\");\n        \n        Student storage student = students[index - 1];\n        return (student.name, student.department, student.mobileNumber);\n    }\n\n    function getAllStudents() public view returns (Student[] memory) {\n        return students;\n    }\n\n    fallback() external {\n        revert(\"Fallback function: Not allowed\");\n    }\n}\n",
  "sourcePath": "/home/raj/Workspace/Student-Data-Smart-Contract/contracts/StudentData.sol",
  "compiler": {
    "name": "solc",
    "version": "0.8.0+commit.c7dfd78e.Emscripten.clang"
  },
  "schemaVersion": "3.4.16",
  "updatedAt": "2023-11-06T15:22:32.908Z",
  "networkType": "ethereum",
  "devdoc": {
    "kind": "dev",
    "methods": {},
    "version": 1
  },
  "userdoc": {
    "kind": "user",
    "methods": {},
    "version": 1
  }
}